{
    "_format": "hh-sol-artifact-1",
    "contractName": "Greeter",
    "sourceName": "contracts/Greeter.sol",
    "abi": [
        {
            "inputs": [
                {
                    "internalType": "string",
                    "name": "_greeting",
                    "type": "string"
                }
            ],
            "stateMutability": "nonpayable",
            "type": "constructor"
        },
        {
            "inputs": [],
            "name": "getCallCount",
            "outputs": [
                {
                    "internalType": "int16",
                    "name": "",
                    "type": "int16"
                }
            ],
            "stateMutability": "view",
            "type": "function"
        },
        {
            "inputs": [],
            "name": "greet",
            "outputs": [
                {
                    "internalType": "string",
                    "name": "",
                    "type": "string"
                }
            ],
            "stateMutability": "view",
            "type": "function"
        },
        {
            "inputs": [
                {
                    "internalType": "string",
                    "name": "_greeting",
                    "type": "string"
                }
            ],
            "name": "setGreeting",
            "outputs": [],
            "stateMutability": "nonpayable",
            "type": "function"
        }
    ],
    "bytecode": "0x60806040523480156200001157600080fd5b5060405162000dab38038062000dab833981810160405281019062000037919062000299565b6200006760405180606001604052806022815260200162000d896022913982620000a860201b6200024a1760201c565b80600090805190602001906200007f92919062000177565b506000600160006101000a81548161ffff021916908360010b61ffff16021790555050620004e6565b6200014a8282604051602401620000c19291906200031f565b6040516020818303038152906040527f4b5c4277000000000000000000000000000000000000000000000000000000007bffffffffffffffffffffffffffffffffffffffffffffffffffffffff19166020820180517bffffffffffffffffffffffffffffffffffffffffffffffffffffffff83818316178352505050506200014e60201b60201c565b5050565b60008151905060006a636f6e736f6c652e6c6f679050602083016000808483855afa5050505050565b82805462000185906200040b565b90600052602060002090601f016020900481019282620001a95760008555620001f5565b82601f10620001c457805160ff1916838001178555620001f5565b82800160010185558215620001f5579182015b82811115620001f4578251825591602001919060010190620001d7565b5b50905062000204919062000208565b5090565b5b808211156200022357600081600090555060010162000209565b5090565b60006200023e620002388462000383565b6200035a565b9050828152602081018484840111156200025757600080fd5b62000264848285620003d5565b509392505050565b600082601f8301126200027e57600080fd5b81516200029084826020860162000227565b91505092915050565b600060208284031215620002ac57600080fd5b600082015167ffffffffffffffff811115620002c757600080fd5b620002d5848285016200026c565b91505092915050565b6000620002eb82620003b9565b620002f78185620003c4565b935062000309818560208601620003d5565b6200031481620004d5565b840191505092915050565b600060408201905081810360008301526200033b8185620002de565b90508181036020830152620003518184620002de565b90509392505050565b60006200036662000379565b905062000374828262000441565b919050565b6000604051905090565b600067ffffffffffffffff821115620003a157620003a0620004a6565b5b620003ac82620004d5565b9050602081019050919050565b600081519050919050565b600082825260208201905092915050565b60005b83811015620003f5578082015181840152602081019050620003d8565b8381111562000405576000848401525b50505050565b600060028204905060018216806200042457607f821691505b602082108114156200043b576200043a62000477565b5b50919050565b6200044c82620004d5565b810181811067ffffffffffffffff821117156200046e576200046d620004a6565b5b80604052505050565b7f4e487b7100000000000000000000000000000000000000000000000000000000600052602260045260246000fd5b7f4e487b7100000000000000000000000000000000000000000000000000000000600052604160045260246000fd5b6000601f19601f8301169050919050565b61089380620004f66000396000f3fe608060405234801561001057600080fd5b50600436106100415760003560e01c8063a413686214610046578063a96b2dc014610062578063cfae321714610080575b600080fd5b610060600480360381019061005b91906104b9565b61009e565b005b61006a6101a1565b6040516100779190610542565b60405180910390f35b6100886101b8565b604051610095919061055d565b60405180910390f35b61014b60405180606001604052806023815260200161083b60239139600080546100c790610739565b80601f01602080910402602001604051908101604052809291908181526020018280546100f390610739565b80156101405780601f1061011557610100808354040283529160200191610140565b820191906000526020600020905b81548152906001019060200180831161012357829003601f168201915b5050505050836102e6565b6002600160008282829054906101000a900460010b61016a9190610674565b92506101000a81548161ffff021916908360010b61ffff160217905550806000908051906020019061019d9291906103ae565b5050565b6000600160009054906101000a900460010b905090565b6060600080546101c790610739565b80601f01602080910402602001604051908101604052809291908181526020018280546101f390610739565b80156102405780601f1061021557610100808354040283529160200191610240565b820191906000526020600020905b81548152906001019060200180831161022357829003601f168201915b5050505050905090565b6102e2828260405160240161026092919061057f565b6040516020818303038152906040527f4b5c4277000000000000000000000000000000000000000000000000000000007bffffffffffffffffffffffffffffffffffffffffffffffffffffffff19166020820180517bffffffffffffffffffffffffffffffffffffffffffffffffffffffff8381831617835250505050610385565b5050565b6103808383836040516024016102fe939291906105b6565b6040516020818303038152906040527f2ced7cef000000000000000000000000000000000000000000000000000000007bffffffffffffffffffffffffffffffffffffffffffffffffffffffff19166020820180517bffffffffffffffffffffffffffffffffffffffffffffffffffffffff8381831617835250505050610385565b505050565b60008151905060006a636f6e736f6c652e6c6f679050602083016000808483855afa5050505050565b8280546103ba90610739565b90600052602060002090601f0160209004810192826103dc5760008555610423565b82601f106103f557805160ff1916838001178555610423565b82800160010185558215610423579182015b82811115610422578251825591602001919060010190610407565b5b5090506104309190610434565b5090565b5b8082111561044d576000816000905550600101610435565b5090565b600061046461045f84610627565b610602565b90508281526020810184848401111561047c57600080fd5b6104878482856106f7565b509392505050565b600082601f8301126104a057600080fd5b81356104b0848260208601610451565b91505092915050565b6000602082840312156104cb57600080fd5b600082013567ffffffffffffffff8111156104e557600080fd5b6104f18482850161048f565b91505092915050565b610503816106ea565b82525050565b600061051482610658565b61051e8185610663565b935061052e818560208601610706565b61053781610829565b840191505092915050565b600060208201905061055760008301846104fa565b92915050565b600060208201905081810360008301526105778184610509565b905092915050565b600060408201905081810360008301526105998185610509565b905081810360208301526105ad8184610509565b90509392505050565b600060608201905081810360008301526105d08186610509565b905081810360208301526105e48185610509565b905081810360408301526105f88184610509565b9050949350505050565b600061060c61061d565b9050610618828261076b565b919050565b6000604051905090565b600067ffffffffffffffff821115610642576106416107fa565b5b61064b82610829565b9050602081019050919050565b600081519050919050565b600082825260208201905092915050565b600061067f826106ea565b915061068a836106ea565b925081617fff038313600083121516156106a7576106a661079c565b5b817fffffffffffffffffffffffffffffffffffffffffffffffffffffffffffff80000383126000831216156106df576106de61079c565b5b828201905092915050565b60008160010b9050919050565b82818337600083830152505050565b60005b83811015610724578082015181840152602081019050610709565b83811115610733576000848401525b50505050565b6000600282049050600182168061075157607f821691505b60208210811415610765576107646107cb565b5b50919050565b61077482610829565b810181811067ffffffffffffffff82111715610793576107926107fa565b5b80604052505050565b7f4e487b7100000000000000000000000000000000000000000000000000000000600052601160045260246000fd5b7f4e487b7100000000000000000000000000000000000000000000000000000000600052602260045260246000fd5b7f4e487b7100000000000000000000000000000000000000000000000000000000600052604160045260246000fd5b6000601f19601f830116905091905056fe4368616e67696e67206772656574696e672066726f6d202725732720746f2027257327a2646970667358221220127b7c8dddc152d604e57df22cdd5c39b20384ab6d736858ed2d514d359fd86364736f6c634300080400334465706c6f79696e67206120477265657465722077697468206772656574696e673a",
    "linkReferences": {},
    "deployedLinkReferences": {}
}